:020000040800F2
:1000000008040020AD100008650F0008670F000805
:10001000690F00086B0F00086D0F0008000000005A
:100020000000000000000000000000006F0F00084A
:10003000710F000800000000730F0008D70A0008C5
:10004000F5100008F9100008FD1000080111000863
:1000500005110008091100080D1100081111000810
:1000600015110008191100081D11000821110008C0
:1000700025110008291100082D1100083111000870
:1000800035110008391100083D1100084111000820
:1000900045110008491100084D11000851110008D0
:1000A00055110008591100085D1100086111000880
:1000B00065110008750F00086D1100087111000826
:1000C00075110008791100087D11000881110008E0
:1000D00085110008891100088D1100089111000890
:1000E00095110008991100089D11000880B50121A3
:1000F000042000F041F91020ADF8000003208DF835
:10010000020010208DF803006946974800F058F966
:1001100001209649086001BD70B504000020934994
:1001200008602100C9B2012000F03FFA002101203F
:1001300000F03BFA0021012000F037FA00210120F5
:1001400000F033FA0021012000F02FFA0120874946
:100150000860002000E0401C0528FCDB00208349EB
:1001600008602100C9B2012000F01FFA002101201F
:1001700000F01BFA06000021012000F016FA04002E
:100180000021012000F011FA05000021012000F0FB
:100190000CFA0121754A1160F6B2E4B2240414EBA2
:1001A0000664EDB214EB0524C0B20419200070BD42
:1001B000F8B50C0000216D4A116025002600360AB2
:1001C00027003F0C240E50F080000100C9B201202E
:1001D00000F0EBF92100C9B2012000F0E6F9390086
:1001E000C9B2012000F0E1F93100C9B2012000F0EC
:1001F000DCF92900C9B2012000F0D7F901205B49E0
:100200000860002003E0491C0A29FCDB401C0A2886
:1002100001DA0021F8E7F1BD80B55548016955487C
:10022000B0F85C00C0B2FFF7C3FF514841695148C4
:100230008089C0B2FFF7BCFF4D4881694D48C08935
:10024000C0B2FFF7B5FF4A48C1694A480088C0B24A
:10025000FFF7AEFF4648016A4648408AC0B2FFF742
:10026000A7FF4348416A4348B0F86400C0B2FFF7B3
:100270009FFF3F48816A3F48408BC0B2FFF798FF1D
:100280003B4890F82C103B48C08BC0B2FFF790FF62
:100290003748C18D3748008CC0B2FFF789FF34481A
:1002A000016B3448408CC0B2FFF782FF3048416B8D
:1002B0003048808CC0B2FFF77BFF2D48816B2D4802
:1002C000C08CC0B2FFF774FF2948C16B2948808DEC
:1002D000C0B2FFF76DFF2648016C2648008DC0B202
:1002E000FFF766FF2248416C2248408DC0B2FFF7FD
:1002F0005FFF1F4890F848101E48C08DC0B2FFF73E
:1003000057FF1B4890F849101A48008EC0B2FFF7FB
:100310004FFF174890F84A101648008BC0B2FFF7FD
:1003200047FF00F001F801BD80B511480168114890
:10033000408EC0B2FFF73CFF0D4841680D48B0F851
:100340006000C0B2FFF734FF094881680948808A1D
:10035000C0B2FFF72DFF064881890648808EC0B2E3
:10036000FFF726FF01BD0000000801409001214277
:100370007404002008040020C9B2002905D00E49E9
:10038000096808430C49086005E00B49096831EA2F
:100390000000094908607047C9B2002905D0074923
:1003A000096808430549086005E00449096831EA1D
:1003B0000000024908607047181002401C100240FB
:1003C00070B4002300220025002600240022CB78F0
:1003D00013F00F03CA78D20601D58A7813430A783E
:1003E000120621D0046800251BE0CA78482A17D1DC
:1003F0000122AA40026113E00126AE400A88324081
:10040000B2420DD1AE000F22B240944313FA06F669
:1004100026433400CA78282AE7D10122AA40426143
:100420006D1C082DE8D304600A88B2F5807F27DBB5
:100430004468002521E0012215F1080612FA06F6AB
:100440000A883240B24217D1AE000F22B240944324
:1004500013FA06F626433400CA78282A04D1012666
:1004600015F1080296404661CA78482A04D101264F
:1004700015F10802964006616D1C082DDBD344601F
:1004800070BC704702000020906889B2084201D019
:10049000012000E00020C0B2704730B400220024E8
:1004A00000230024002802D51E4A136801E01E4ADA
:1004B0001368C0F3034482B210F44015B5F5401F31
:1004C00008D133F07063184C246834F07064164D12
:1004D0002C6013E0C50208D5032515FA04F433EAAD
:1004E0000404230053F0706308E00400640DE4B2D8
:1004F000240112FA04F4A34353F07063C9B2002933
:1005000006D00100490DC9B209018A401A431300FF
:10051000002802D50348036001E00348036030BCB3
:10052000704700001C0001400400014000B587B086
:1005300001214FF48050FFF71FFF01210520FFF735
:100540001BFFE020ADF8000003208DF8020018200A
:100550008DF8030069463148FFF732FF0020ADF8FF
:1005600004004FF48270ADF806000020ADF80800DA
:100570000220ADF80A000120ADF80C004FF4007025
:10058000ADF80E002820ADF810000020ADF81200E4
:100590000720ADF8140001A9214800F045F8012119
:1005A0001F4800F060F807B000BD10B50C00C0B2E5
:1005B000012816D102211A4800F067F80028F9D066
:1005C000E4B2210089B2164800F05BF8012114481A
:1005D00000F05BF80028F9D0114800F054F8C0B2E0
:1005E0001AE0C0B2022816D102210E4800F04DF8E0
:1005F0000028F9D0E4B2210089B20A4800F041F89D
:100600000121084800F041F80028F9D0054800F021
:100610003AF8C0B200E0002010BD00000008014020
:10062000003001400038004010B40023038813F468
:1006300041530C884A8814438A881443CA88144357
:100640000A8914434A8914438A891443CA89144382
:1006500023430380838B4FF2FF7213408383098A05
:10066000018210BC7047C9B2002904D0018851F042
:100670004001018004E002884FF6BF710A40028009
:10068000704781817047808970470200002010897F
:10069000084201D0012000E00020C0B270470000F5
:1006A0000020834908800120814948800220804938
:1006B000888003207E49C88004207D490881052068
:1006C0007B49488110207A49888111207849C88166
:1006D00012207749088213207549488214207449F2
:1006E000888215207249C882202071490883212000
:1006F0006F49488322206E49888323206C49C88330
:1007000024206B49088425206949488426206849AB
:10071000888427206649C8842820654908852A20BE
:10072000634948852B20624988852C206049C8850B
:100730002D205F49088633205D49488634205C4976
:10074000888635205A49C886362059490887382076
:10075000574948873920564988873A205449C887DD
:100760003B205349A1F840003C205149A1F84200E8
:1007700060204F49A1F8440061204D49A1F846008E
:1007800062204B49A1F8480063204949A1F84A007A
:1007900064204749A1F84C0065204549A1F84E0066
:1007A00066204349A1F8500067204149A1F8520052
:1007B00068203F49A1F8540069203D49A1F856003E
:1007C0006A203B49A1F858006B203949A1F85A002A
:1007D0006C203749A1F85C006D203549A1F85E0016
:1007E0006E203349A1F860006F203149A1F8620002
:1007F00070202F49A1F8640071202D49A1F86600EE
:1008000072202B49A1F8680073202949A1F86A00D9
:10081000704741F2883027490860274825494860D9
:100820007320244988604FF48060224988812348DE
:100830002049086122481F49486108201D498861F4
:1008400004201C49C8614FF4FA701A4908621D4817
:10085000184948620020174988620820154981F824
:100860002C004FF47A701349C8854CF2503011496E
:1008700008634FF47A700F49486313480D49886341
:100880000A200C49C8634FF42F700A4908644FF4DA
:10089000AF60084948640020064981F848000020FC
:1008A000044981F849000020024981F84A00704754
:1008B00008040020740400202600030053014D03A7
:1008C00008080700C8010400A086010080B54E4852
:1008D000006850F001004C4908604C4801684C48E1
:1008E00001404A480160484801684A48014046487A
:1008F00001604548006830F480204349086043485F
:10090000006830F4FE00414908605FF41F0042496E
:10091000086000F005F85FF000604049086001BD24
:1009200080B500F001F801BD82B0002001900020E8
:1009300000903548006850F48030334908603248F0
:10094000006810F4003000900198401C019000985D
:10095000002803D10198B0F5A06FF0D12A480068B3
:10096000800302D50120009001E000200090009853
:10097000012847D12A48006850F010002849086033
:1009800027480068800880002549086024480068DE
:1009900050F00200224908601C4800681B490860AA
:1009A0001A480068194908601848006850F48060C7
:1009B000164908601548006830F47C101349086037
:1009C0001248006850F4E810104908600E480068AA
:1009D00050F080700C4908600B4800688001FBD51E
:1009E0000A480068800880000849086007480068D5
:1009F00050F00200054908600448006810F00C003F
:100A00000828F9D102B070470010024004100240DB
:100A10000000FFF8FFFFF6FE0810024008ED00E0BE
:100A20000020024040B2002804D40901404A40B2EC
:100A3000115407E009013F4A40B210F00F00104482
:100A400000F8041C704780B5411EB1F1807F01D3CE
:100A500001200EE0401E384908600F215FF0FF3092
:100A6000FFF7E0FF0020354908600720344908609F
:100A7000002002BD80B54FF4E06000F069F81D2051
:100A80008DF8000000208DF8010003208DF8020091
:100A900001208DF80300684600F05FF801BD80B5C5
:100AA0002848FFF7D0FF002800D0FEE701BD264808
:100AB0000068002804D024480068401E22490860CD
:100AC000704701B40098204908601F48006800285A
:100AD000FBD101B0704780B5FFF7E9FF01BDE0B57C
:100AE000FFF7C8FF01210220FFF756FC42F20F700A
:100AF000ADF804004720ADF800000020ADF8060076
:100B00000020ADF8020000208DF8080069460F486B
:100B100000F072F801210D4800F0D2F80122012105
:100B20000A4800F0C1F80121084800F0AFF807BDFD
:100B300000E400E018ED00E014E000E018E000E060
:100B400010E000E040190100C4040020000400404F
:100B50002349084323490860704710B4002100224C
:100B60000F23C17800291FD01E49096811F4E061E4
:100B7000D1F5E061090AD1F10402CB4044781100BB
:100B800014FA01F18278134019430901164A0378D7
:100B9000D1540121027812F01F029140134A0078CB
:100BA000401142F8201009E00121027812F01F02E2
:100BB00091400F4A0078401142F8201010BC704755
:100BC000042806D10B48006850F004000949086069
:100BD00005E00848006830F00400064908607047E6
:100BE0000000FA050CED00E000E400E000E100E0A8
:100BF00080E100E010E000E000230388224A9042F8
:100C000012D0DFF8082190420ED0B0F1804F0BD007
:100C1000DFF8E420904207D0DFF8E020904203D0D4
:100C2000DFF8DC20904204D14FF68F7213404A88DF
:100C30001343DFF8D020904208D0DFF8CC20904258
:100C400004D04FF6FF421340CA88134303808A88BA
:100C500082850A8802850C4A90420FD0DFF8AC20CA
:100C600090420BD0DFF8A820904207D0DFF8A420F4
:100C7000904203D0DFF8A020904201D1097A01868A
:100C80000121818270470000002C0140C9B2002977
:100C900004D0018851F00101018004E002884FF680
:100CA000FE710A4002807047D2B2002A03D08289C6
:100CB0001143818103E0828932EA01018181704719
:100CC00089B2C9430182704702000020002300203E
:100CD000138A0B409089014008009BB2002B04D07E
:100CE00080B2002801D0012000E00020C0B270478F
:100CF00089B2C943018270470004004000080040E7
:100D0000000C00400010004000140040003401407E
:100D100000400140004401400048014080B50121ED
:100D20001420FFF729FB01213B48FFF7B6FB4FF4E6
:100D30000040ADF8000048208DF8030069463748B0
:100D4000FFF73EFB2020ADF8000048208DF803009F
:100D500069463348FFF734FB0120ADF80000282036
:100D60008DF8030069462D48FFF72AFB01BD80B5C9
:100D7000C0B2002802D001202A4908702948007812
:100D8000002831D020212648FFF77CFB00280CD01A
:100D90004FF400412148FFF775FB002805D00121E1
:100DA0001E48FFF76FFB01281ED10120FFF789FEC7
:100DB00000201C49087020211948FFF763FB002818
:100DC00001D1012027E04FF400411448FFF75AFBFE
:100DD000002801D102201EE001211048FFF752FB3C
:100DE000012817D1032016E020210D48FFF74AFB08
:100DF00001280FD14FF400410848FFF743FB0128B9
:100E000008D101210548FFF73DFB002802D1012050
:100E100004490870002002BD0002300000080140B3
:100E2000001001400400002080B5FFF74FFDFFF7E0
:100E300036FEFFF773FF00F077F87FF00400FFF74E
:100E4000BFFEFFF72DFCFFF7E4FCFFF748FE00F0C4
:100E500081F800212F48008EC0B2FFF7A9F90021C8
:100E60002C48008BC0B2FFF7A3F92B480168294832
:100E7000C08CC0B2FFF79CF94FF49670FFF721FECB
:100E800026480078C00715D42248008AC0B2FFF770
:100E900043F9234908600020FFF769FF022809D1C0
:100EA0001C48C08EC0B2FFF737F91E4908603220D7
:100EB000FFF707FE0020FFF75AFF01281CD14FF46F
:100EC0009670FFF7FEFD00F045F800211148008EF6
:100ED000C0B2FFF76DF900210E48008BC0B2FFF7DA
:100EE00067F90D4801680B48C08CC0B2FFF760F984
:100EF0004FF49670FFF7E5FD01210648008BC0B264
:100F0000FFF756F9044801680248C08CC0B2FFF7E9
:100F10004FF9B5E70804002000000020C0040020BD
:100F2000CC040020C804002080B501210420FFF774
:100F300023FA4FF48070ADF8000003208DF8020012
:100F400010208DF8030069460148FFF739FA01BD0A
:100F50000008014080B5FFF7C9F8FFF7E7FAFFF78F
:100F60005BF901BD7047FEE7FEE7FEE7FEE770476D
:100F70007047704780B501210B48FFF7A5FE002898
:100F800011D00A480068401C084908600121064841
:100F9000FFF7AEFE0548006840F6B931884202D13D
:100FA00000200249086001BD00040040C004002088
:100FB00019E050F8042BD30744BFA9F101039A1894
:100FC000091F0023042942F8043BF9D25FEA817C1F
:100FD000134604D54FF0000CA2F800C09B1CC907B3
:100FE00044BF0021197050F8041B0029E1D170475B
:100FF00010B450F8041B79B1026843680244083009
:10100000DC0744BFA9F10104E31852F8044B43F88C
:10101000044B091FF9D1ECE710BC704710B5074924
:1010200079441831064C7C44163404E00A68081DE3
:10103000114488470146A142F8D110BD08000000C4
:10104000280000006DFFFFFFC8000000080400201A
:10105000000000009DFFFFFF080000006C00000082
:10106000000000200000000000F00BF8002801D074
:10107000FFF7D4FF0020AFF30080FFF7D5FE00F0AC
:1010800002F80120704700F001B80000074638461A
:1010900000F002F8FBE7000080B5AFF30080024AE1
:1010A00011001820ABBEFBE7260002000148804774
:1010B00001480047CD080008BD100008AFF30080CC
:1010C000AFF30080FFF7D0FF80380100010000007F
:1010D000FFF748BFFFF747BFFFF746BFFFF745BF22
:1010E000FFF744BFFFF743BFFFF742BFFFF741BF22
:1010F000FFF7F1BCFFF7FEBFFFF7FEBFFFF7FEBF34
:10110000FFF7FEBFFFF7FEBFFFF7FEBFFFF7FEBF13
:10111000FFF7FEBFFFF7FEBFFFF7FEBFFFF7FEBF03
:10112000FFF7FEBFFFF7FEBFFFF7FEBFFFF7FEBFF3
:10113000FFF7FEBFFFF7FEBFFFF7FEBFFFF7FEBFE3
:10114000FFF7FEBFFFF7FEBFFFF7FEBFFFF7FEBFD3
:10115000FFF7FEBFFFF7FEBFFFF7FEBFFFF7FEBFC3
:10116000FFF7FEBFFFF7FEBFFFF704BFFFF7FEBFAD
:10117000FFF7FEBFFFF7FEBFFFF7FEBFFFF7FEBFA3
:10118000FFF7FEBFFFF7FEBFFFF7FEBFFFF7FEBF93
:10119000FFF7FEBFFFF7FEBFFFF7FEBFFFF7FEBF83
:04000005080010BD22
:00000001FF
