:020000040800F2
:1000000008040020150E0008CD0C0008CF0C0008D5
:10001000D10C0008D30C0008D50C0008000000002B
:10002000000000000000000000000000D70C0008E5
:10003000D90C000800000000DB0C00088F09000844
:10004000550E0008590E00085D0E0008610E0008EC
:10005000650E0008690E00086D0E0008710E00089C
:10006000750E0008790E00087D0E0008810E00084C
:10007000850E0008890E00088D0E0008910E0008FC
:10008000950E0008990E00089D0E0008A10E0008AC
:10009000A50E0008A90E0008AD0E0008B10E00085C
:1000A000B50E0008B90E0008BD0E0008C10E00080C
:1000B000C50E0008DD0C0008CD0E0008D10E0008AA
:1000C000D50E0008D90E0008DD0E0008E10E00086C
:1000D000E50E0008E90E0008ED0E0008F10E00081C
:1000E000F50E0008F90E0008FD0E000880B501218C
:1000F000042000F039F91020ADF8000003208DF83D
:10010000020010208DF8030069468F4800F050F976
:1001100001208E49086001BD70B5040000208B49A4
:1001200008602100C9B2012000F0E3F9002101209C
:1001300000F0DFF90021012000F0DBF900210120AF
:1001400000F0D7F90021012000F0D3F901207F4908
:100150000860002000E0401C0528FCDB00207B49F3
:1001600008602100C9B2012000F0C3F9002101207C
:1001700000F0BFF906000021012000F0BAF90400E8
:100180000021012000F0B5F905000021012000F058
:10019000B0F901216D4A1160F6B2E4B2240414EB07
:1001A0000664EDB214EB0524C0B20419200070BD42
:1001B000F8B50C000021654A116025002600360ABA
:1001C00027003F0C240E50F080000100C9B201202E
:1001D00000F08FF92100C9B2012000F08AF939003E
:1001E000C9B2012000F085F93100C9B2012000F048
:1001F00080F92900C9B2012000F07BF901205349A0
:100200000860002003E0491C0A29FCDB401C0A2886
:1002100001DA0021F8E7F1BD80B54D494D48B0F84D
:100220005C00C0B2FFF7C4FF4B494A488089C0B2A6
:10023000FFF7BEFF08214748C089C0B2FFF7B8FFEB
:10024000042144480088C0B2FFF7B2FF4FF4FA71AE
:100250004048408AC0B2FFF7ABFF40493D48B0F884
:100260006400C0B2FFF7A4FF00213A48408BC0B23F
:10027000FFF79EFF08213748C08BC0B2FFF798FFF9
:100280004FF47A713348008CC0B2FFF791FF4CF203
:1002900050313048408CC0B2FFF78AFF4FF47A717A
:1002A0002C48808CC0B2FFF783FF2D492948C08CB1
:1002B000C0B2FFF77DFF0A212648808DC0B2FFF74C
:1002C00077FF4FF42F712348008DC0B2FFF770FF06
:1002D0004FF4AF611F48408DC0B2FFF769FF0021A6
:1002E0001C48C08DC0B2FFF763FF00211948008E83
:1002F000C0B2FFF75DFF00211648008BC0B2FFF7C8
:1003000057FF00F001F801BD80B51648016811489B
:10031000408EC0B2FFF74CFF124841680D48B0F85C
:100320006000C0B2FFF744FF0E4881680948808A28
:10033000C0B2FFF73DFF0B4881890648808EC0B2EE
:10034000FFF736FF01BD0000000801409001214287
:1003500053014D040804002003070700C8010400EE
:10036000A086010074040020C9B2002905D00E49FE
:10037000096808430C49086005E00B49096831EA3F
:100380000000094908607047C9B2002905D0074933
:10039000096808430549086005E00449096831EA2D
:1003A0000000024908607047181002401C1002400B
:1003B00070B4002300220025002600240022CB7800
:1003C00013F00F03CA78D20601D58A7813430A784E
:1003D000120621D0046800251BE0CA78482A17D1EC
:1003E0000122AA40026113E00126AE400A88324091
:1003F000B2420DD1AE000F22B240944313FA06F67A
:1004000026433400CA78282AE7D10122AA40426153
:100410006D1C082DE8D304600A88B2F5807F27DBC5
:100420004468002521E0012215F1080612FA06F6BB
:100430000A883240B24217D1AE000F22B240944334
:1004400013FA06F626433400CA78282A04D1012676
:1004500015F1080296404661CA78482A04D101265F
:1004600015F10802964006616D1C082DDBD344602F
:1004700070BC704700B587B001214FF48050FFF782
:1004800073FF01210520FFF76FFFE020ADF80000AA
:1004900003208DF8020018208DF8030069463148CA
:1004A000FFF786FF0020ADF804004FF48270ADF82E
:1004B00006000020ADF808000220ADF80A00012077
:1004C000ADF80C004FF40070ADF80E002820ADF828
:1004D00010000020ADF812000720ADF8140001A9AB
:1004E000214800F045F801211F4800F060F807B0EE
:1004F00000BD10B50C00C0B2012816D102211A4867
:1005000000F067F80028F9D0E4B2210089B216485B
:1005100000F05BF80121144800F05BF80028F9D0E6
:10052000114800F054F8C0B21AE0C0B2022816D147
:1005300002210E4800F04DF80028F9D0E4B2210065
:1005400089B20A4800F041F80121084800F041F85A
:100550000028F9D0054800F03AF8C0B200E00020C9
:1005600010BD00000008014000300140003800408C
:1005700010B40023038813F441530C884A881443B1
:100580008A881443CA8814430A8914434A89144345
:100590008A891443CA89144323430380838B4FF20F
:1005A000FF7213408383098A018210BC7047C9B26D
:1005B000002904D0018851F04001018004E0028844
:1005C0004FF6BF710A400280704781817047808971
:1005D0007047020000201089084201D0012000E08D
:1005E0000020C0B27047000000206349088001204D
:1005F0006149488002206049888003205E49C880A4
:1006000004205D49088105205B49488110205A4932
:10061000888111205849C881122057490882132027
:100620005549488214205449888215205249C8826D
:1006300020205149088321204F49488322204E49D8
:10064000888323204C49C88324204B4908842520D3
:100650004949488426204849888427204649C88437
:100660002820454908852A20434948852B204249AE
:1006700088852C204049C8852D203F490886332095
:100680003D49488634203C49888635203A49C88609
:100690003620394908873820374948873920364974
:1006A00088873A203449C8873B203349A1F8400065
:1006B0003C203149A1F8420060202F49A1F84400B4
:1006C00061202D49A1F8460062202B49A1F848007D
:1006D00063202949A1F84A0064202749A1F84C0069
:1006E00065202549A1F84E0066202349A1F8500055
:1006F00067202149A1F8520068201F49A1F8540041
:1007000069201D49A1F856006A201B49A1F858002C
:100710006B201949A1F85A006C201749A1F85C0018
:100720006D201549A1F85E006E201349A1F8600004
:100730006F201149A1F8620070200F49A1F86400F0
:1007400071200D49A1F8660072200B49A1F86800DC
:1007500073200949A1F86A00704741F288300749BF
:1007600008600748054948607320044988604FF4D1
:1007700080600249888170470804002074040020CA
:100780002600030080B54E48006850F001004C4937
:1007900008604C4801684C4801404A48016048489C
:1007A00001684A480140464801604548006830F405
:1007B0008020434908604348006830F4FE00414906
:1007C00008605FF41F004249086000F005F85FF020
:1007D00000604049086001BD80B500F001F801BD2E
:1007E00082B000200190002000903548006850F44D
:1007F0008030334908603248006810F400300090BF
:100800000198401C01900098002803D10198B0F590
:10081000A06FF0D12A480068800302D50120009023
:1008200001E0002000900098012847D12A48006884
:1008300050F01000284908602748006880088000B0
:10084000254908602448006850F0020022490860E9
:100850001C4800681B4908601A480068194908606C
:100860001848006850F48060164908601548006810
:1008700030F47C10134908601248006850F4E81006
:10088000104908600E48006850F080700C490860FC
:100890000B4800688001FBD50A480068800880008A
:1008A000084908600748006850F0020005490860E0
:1008B0000448006810F00C000828F9D102B0704715
:1008C00000100240041002400000FFF8FFFFF6FE97
:1008D0000810024008ED00E00020024040B200286D
:1008E00004D40901404A40B2115407E009013F4ACB
:1008F00040B210F00F00104400F8041C704780B59F
:10090000411EB1F1807F01D301200EE0401E384925
:1009100008600F215FF0FF30FFF7E0FF002035494E
:100920000860072034490860002002BD80B54FF4FC
:10093000E06000F069F81D208DF8000000208DF8BF
:10094000010003208DF8020001208DF803006846A5
:1009500000F05FF801BD80B52848FFF7D0FF002800
:1009600000D0FEE701BD26480068002804D02448D6
:100970000068401E22490860704701B40098204971
:1009800008601F4800680028FBD101B0704780B59F
:10099000FFF7E9FF01BDE0B5FFF7C8FF0121022025
:1009A000FFF7F2FC42F20F70ADF804004720ADF8FB
:1009B00000000020ADF806000020ADF80200002085
:1009C0008DF8080069460F4800F072F801210D48C3
:1009D00000F0D2F8012201210A4800F0C1F80121FB
:1009E000084800F0AFF807BD00E400E018ED00E0B3
:1009F00014E000E018E000E010E000E04019010021
:100A0000880400200004004023490843234908606B
:100A1000704710B4002100220F23C17800291FD095
:100A20001E49096811F4E061D1F5E061090AD1F1CC
:100A30000402CB404478110014FA01F1827813408B
:100A400019430901164A0378D1540121027812F0A2
:100A50001F029140134A0078401142F8201009E02B
:100A60000121027812F01F0291400F4A00784011D4
:100A700042F8201010BC7047042806D10B480068CB
:100A800050F004000949086005E00848006830F0AB
:100A900004000649086070470000FA050CED00E00C
:100AA00000E400E000E100E080E100E010E000E0B0
:100AB00000230388224A904212D0DFF80821904296
:100AC0000ED0B0F1804F0BD0DFF8E420904207D079
:100AD000DFF8E020904203D0DFF8DC20904204D120
:100AE0004FF68F7213404A881343DFF8D0209042AC
:100AF00008D0DFF8CC20904204D04FF6FF421340DC
:100B0000CA88134303808A8882850A8802850C4A32
:100B100090420FD0DFF8AC2090420BD0DFF8A82035
:100B2000904207D0DFF8A420904203D0DFF8A02045
:100B3000904201D1097A018601218182704700002B
:100B4000002C0140C9B2002904D0018851F00101F4
:100B5000018004E002884FF6FE710A40028070476F
:100B6000D2B2002A03D082891143818103E08289B5
:100B700032EA01018181704789B2C943018270471D
:100B80000200002000230020138A0B4090890140BE
:100B900008009BB2002B04D080B2002801D00120B5
:100BA00000E00020C0B2704789B2C943018270479B
:100BB0000004004000080040000C0040001000400D
:100BC0000014004000340140004001400044014056
:100BD0000048014080B5FFF7D5FDFFF7BCFE00F0EF
:100BE00057F87FF00400FFF747FFFFF7FDFCFFF722
:100BF000B4FDFFF7D0FE00F061F801201F49087036
:100C000002201E4948703520FFF786FA1C4908600B
:100C100000211C48008EC0B2FFF7CAFA0021194813
:100C2000008BC0B2FFF7C4FA174801681548C08CA2
:100C3000C0B2FFF7BDFA6420FFF79FFE3520FFF733
:100C40006BFA0F4908604FF4FA70104909680F4AAF
:100C50001268B2FBF0F200FB1210002804D135201C
:100C6000FFF75AFA0649086001212020FFF7A0FA91
:100C7000054801682720FFF79BFAE4E7900400206D
:100C80008C040020080400200000002084040020C0
:100C900080B501210420FFF767FB4FF48070ADF8A9
:100CA000000003208DF8020010208DF80300694633
:100CB0000148FFF77DFB01BD0008014080B5FFF74B
:100CC00015FAFFF7D7FBFFF7A7FA01BD7047FEE75C
:100CD000FEE7FEE7FEE770477047704780B50121E9
:100CE0000B48FFF74DFF002811D00A480068401C50
:100CF0000849086001210648FFF756FF05480068CB
:100D000040F6B931884202D100200249086001BD95
:100D1000000400408404002019E050F8042BD3079D
:100D200044BFA9F101039A18091F0023042942F8BE
:100D3000043BF9D25FEA817C134604D54FF0000CE6
:100D4000A2F800C09B1CC90744BF0021197050F8CD
:100D5000041B0029E1D1704710B450F8041B79B18D
:100D60000268436802440830DC0744BFA9F101046B
:100D7000E31852F8044B43F8044B091FF9D1ECE790
:100D800010BC704710B5074979441831064C7C44B3
:100D9000163404E00A68081D114488470146A14240
:100DA000F8D110BD08000000280000006DFFFFFF13
:100DB0008C00000008040020000000009DFFFFFFE1
:100DC000040000003C0100000000002000000000C2
:100DD00000F00BF8002801D0FFF7D4FF0020AFF39C
:100DE0000080FFF7F7FE00F002F80120704700F0E6
:100DF00001B800000746384600F002F8FBE70000A3
:100E000080B5AFF30080024A11001820ABBEFBE7AB
:100E10002600020001488047014800478507000876
:100E2000250E0008AFF30080AFF30080FFF7D0FF7E
:100E3000FFF74CBFFFF74BBFFFF74ABFFFF749BFB4
:100E4000FFF748BFFFF747BFFFF746BFFFF745BFB4
:100E5000FFF79DBDFFF7FEBFFFF7FEBFFFF7FEBF29
:100E6000FFF7FEBFFFF7FEBFFFF7FEBFFFF7FEBFB6
:100E7000FFF7FEBFFFF7FEBFFFF7FEBFFFF7FEBFA6
:100E8000FFF7FEBFFFF7FEBFFFF7FEBFFFF7FEBF96
:100E9000FFF7FEBFFFF7FEBFFFF7FEBFFFF7FEBF86
:100EA000FFF7FEBFFFF7FEBFFFF7FEBFFFF7FEBF76
:100EB000FFF7FEBFFFF7FEBFFFF7FEBFFFF7FEBF66
:100EC000FFF7FEBFFFF7FEBFFFF708BFFFF7FEBF4C
:100ED000FFF7FEBFFFF7FEBFFFF7FEBFFFF7FEBF46
:100EE000FFF7FEBFFFF7FEBFFFF7FEBFFFF7FEBF36
:100EF000FFF7FEBFFFF7FEBFFFF7FEBFFFF7FEBF26
:040F000050C30000DA
:0400000508000E25BC
:00000001FF
